:020000040800F2
:10000000C80400203D1F0008B11E0008B31E0008F0
:10001000B51E0008B71E0008B91E00080000000049
:10002000000000000000000000000000BB1E0008EF
:10003000BD1E000800000000BF1E0008C11E000811
:10004000611F0008651F0008691F00086D1F000878
:10005000711F0008751F0008791F00087D1F000828
:10006000811F0008851F0008891F00088D1F0008D8
:10007000911F0008951F0008991F00089D1F000888
:10008000A11F0008A51F0008A91F0008AD1F000838
:10009000B11F0008B51F0008B91F0008BD1F0008E8
:1000A000C11F0008C51F0008C91F0008CD1F000898
:1000B000C51E0008D11F0008D51F0008D91F000861
:1000C000DD1F0008E11F0008E51F0008E91F000808
:1000D000ED1F0008F11F0008F51F0008F91F0008B8
:1000E000FD1F000801200008052000080920000865
:1000F0000D20000811200008152000081920000814
:100100001D200008212000082520000829200008C3
:100110002D20000831200008352000083920000873
:100120003D20000841200008452000084920000823
:10013000F8B5040025D004F13C05697821B9002008
:100140002870204600F09CFC242169702068026819
:100150005208520002602068016841F400410160C9
:100160002068026822F40042026000F0EAFE0146C4
:100170006068DFF8EC24904205D2DFF8E834994259
:1001800005D20120F2BDDFF8E0048142F9D32068F6
:10019000DFF8D8344668B1FBF3F3B60943EA8616B4
:1001A00046602668376A6068904206D34FF49670BE
:1001B00043434FF47A70B3FBF0F35B1CBF0943EA8F
:1001C00087133362491E2368DE696768974206D247
:1001D0007F0000F043F8042913D2042111E0A06845
:1001E00020B907EB470700F039F805E0192047432D
:1001F00000F034F841F4804108050CBF012141F4BE
:100200000041DFF8780406400E43DE61226813687F
:10021000E169206A23F0C0030B43034313602268A3
:10022000DFF85C04936821690340E0680B430343F3
:1002300093602168CA68A3696069120A034343EAAC
:100240000222CA602068016841F0010101600020BB
:100250006860202169702063A870F2BDB1FBF7F1DE
:10026000491CC1F30B0170472DE9F84304460E46C3
:100270001546994600F0A8FE00F072FA06D1CDF8B6
:10028000008000F0F5F900F03AFA002879D13878CA
:10029000012876D000F0A0F921207870102100F01C
:1002A000D7F900F082FAE16A082918BF012904D0C1
:1002B00081421CBF206B122801D100F060FACDF8FA
:1002C00000800022089D2B4600F017FA00282068C5
:1002D00006D00168CA054DD54FF40070786049E03A
:1002E0002169B1F5804F08BF06F0FE060FD0F10975
:1002F00001F0060141F0F001016143462A46DFF8B2
:10030000841300F081F9002834D12068F6B2066128
:1003100043462A46DFF8701300F076F9002829D109
:10032000009021684A69009289690091009A208DA5
:10033000002821D04246294600F042FAA8B900F030
:100340007BF9401E208521684A69530706D580B293
:1003500020B1606A02780A6100F059F942462946E4
:10036000204600F0EAFA0028E1D07868042801D19C
:1003700000F01FFA012005E000F01BFA00F015F96B
:1003800000E00220BDE8F2832DE9F84F044600208A
:10039000009000F046F900F049F905D1009600F010
:1003A00067F900F0ACF9002840F0FC8038780128AB
:1003B00000F0F88000F010F9222078701021B97058
:1003C00000207860C4F82490A4F82A80608D00F0A2
:1003D000ECF9E16A22681368082943F4806318BFC6
:1003E0000129136004D081421CBF206B112801D168
:1003F00000F0C5F900960022DDF828904B4600F089
:100400007CF9002820684FF4007A06D00168CA05FC
:1004100048BFC7F804A00120C5E02169DFF8688261
:10042000B1F5804F04D145F00105EDB2056127E03B
:10043000E90901F0060B4BF0F001016133464A4631
:10044000DFF8401200F0E0F80028E4D12068EDB2B7
:10045000056100F0D6F80028DDD1009000F098F991
:100460004B4600980A6842F480720A60009600F0D9
:1004700043F908B12068C9E720684BF0F101016138
:1004800000F0BFF80028C6D1208D10B900F01AF98D
:100490001CE0012802D100F051F905E00228206893
:1004A000016804D100F03AF90A6062B60EE000F08B
:1004B00029F90BE000F0A0F80028ACD100F015F904
:1004C000208D6262411E218500F0EAF8208D00280F
:1004D00065D0042844D20128ECD00228DFF8AC1102
:1004E00000964B460BD1002200F009F9002892D16A
:1004F00000F062F8218500F0D3F862B6DEE7002252
:1005000000F0FDF8002886D100F0E8F84FF47A7E7C
:1005100020680169606A0170616A208D4A1C411E71
:1005200062622185608DDFF86821411E6185192195
:100530001368B3FBF1F1B1FBFEFE232000FB0EF0CC
:100540000090216800F0A6F828B148694207F9D563
:1005500000F0AAF8CEE700F009F962B638705AE761
:1005600000F04AF80028FAD120680169606A017039
:10057000616A208D4A1C401E62622085618D4A1E80
:10058000628521684A695307A0D580B2032803D148
:10059000086820F48060086000F000F990E700F03F
:1005A00004F800E00220BDE8F28F202078700021DE
:1005B000B97000203870704772B62068016841F445
:1005C0000071016020680169606A0170616A208DB4
:1005D0004A1C411E6262704701213970206802681E
:1005E000D10703D4026842F001020260206801686A
:1005F00021F400610160704732464946204600F010
:10060000C9B933464A464146204600F011B9606AEE
:10061000411C6162608D411E6185208D411E2185D6
:1006200070470D469146984600F0CEBC04F13C0759
:100630000646787820287047606A22680178116140
:10064000606A411C6162608D411E6185208D70472A
:10065000B970002078606562A4F82A90608D7047B8
:10066000A186010080841E0000093D0040420F0069
:1006700019230122DFF81411704700000030FFFF3A
:10068000007CFFFF080001000200010004000100DF
:10069000200000200098401E009000987047626281
:1006A000608D411E61857047086840F400700860E5
:1006B00021680869616A0870606A421C208D626264
:1006C000411E7047009021684A6900928B6900932F
:1006D00000980A6842F400720A6070472068016856
:1006E00021F48061016072B6704720680169606A18
:1006F0000170616A4A1C704700224FF001112046C8
:1007000000F062B841F4806101600020009021682F
:100710004A690092896900910098704741F400612C
:10072000016072B60020009021684A6900928B69CE
:10073000009300980A6822F480627047206801687C
:1007400021F48061016072B60020009021684A693E
:1007500000928B69009300980A6842F40072704717
:1007600004F13C07804678782028704720632021D8
:100770007970B870796841F020017960704720681D
:10078000016841F4807101607047000002001000B0
:1007900021684A6900928B69009370472168086953
:1007A000616A0870606A421C704720850548E062F3
:1007B00070472068016841F400710160704741464C
:1007C00020469AE00000FFFF2DE9F8430F46089C01
:1007D0000646904699463D0C3068E9B201290CBFA7
:1007E0004069806900F06FF80CBF0120002040458F
:1007F0001CD119F1010FEFD000F0E6FB001B814581
:1008000002D3B9F1000FE7D13068E9B201290CBF7A
:100810004069806900F057F80CBF01200020404576
:10082000DAD100F05CF80120BDE8F2830020FBE79C
:100830002DE9F0410F460646144698463D0CE8B2B5
:10084000012837D130684169394089B2B8B2814254
:1008500037D0306841694A0510D500F039F8326860
:100860005061002106F13C0031632022427081700A
:10087000426842F004024260017014E014F1010F7A
:10088000DDD000F0A1FBA0EB0800844201D3002CD6
:10089000D5D1E9B23068012908D1406900F013F8D8
:1008A000D0D000F01CF80120BDE8F081806900F094
:1008B0000AF8F6D130688169394089B2B8B281420C
:1008C000C7D10020F0E7384080B2B9B28842704703
:1008D000016841F4007101606FF48060704700208E
:1008E0003063202106F13C00002241708270416893
:1008F00041F0200141600270704770B505460C461A
:10090000164628684169080615D4284600F06DF897
:1009100078B914F1010FF4D000F056FB801B84422B
:1009200001D3002CEDD1286841690806E9D400F014
:1009300024F8012070BD002070BD70B505460C463E
:10094000164628684169480715D4284600F04DF836
:1009500078B914F1010FF4D000F036FB801B84420B
:1009600001D3002CEDD1286841694807E9D400F093
:1009700004F8012070BD002070BD002105F13C008D
:100980002963202242708170426842F02002426056
:100990000170704770B505460C46164628684169D7
:1009A0004A0620D44169CA060FD56FF01001416193
:1009B00000202863202105F13C0000224170827054
:1009C000416841600270012070BD00F0FDFA801B9B
:1009D000844201D3002CE1D1286841694806DDD466
:1009E000FFF7CBFFEFE7002070BD01684A695305B0
:1009F0000FD56FF480624A61002101633C302022F0
:100A000042708170426842F004024260017001202D
:100A100070470020704730B4002513E050F8042BD5
:100A2000D30744BFA9F101039A18091F042942F80A
:100A3000045BFAD213468C0744BF15809B1CC90780
:100A400048BF1D7050F8041B0029E7D130BC704727
:100A5000214A2248224980B5426000234FF4804257
:100A600001608360C360026143618361C3610362AB
:100A7000FFF75EFB18B1BDE8014000F0EDBC01BD21
:100A800018B585B004461022002101A800F0E6FC4C
:100A90002168134881421CD1124C216841F00801A1
:100AA0002160C021206800F0080000901222009808
:100AB0000D48019102920321049101A900F0D8FC94
:100AC000606840F400106060606800F400100090FE
:100AD000009806B010BD0000A08601002400002090
:100AE0000054004018100240000C01402DE9F8436A
:100AF000040016D02078DFF86064C10713D5706851
:100B000000F00C00042807D0706800F00C000828E2
:100B100041D17068C1033ED53068810303D5606858
:100B2000002800F064812078DFF83C74810719D533
:100B3000706810F00C0F07D0706800F00C000828E7
:100B400061D17068C1035ED43068810703D5206924
:100B5000012840F04C813168606921F0F80141EAD8
:100B6000C00131602178080740F18180A069DFF879
:100B7000FC13002800F0A68001220A6000F024FA8D
:100B80000546706A810763D400F01EFA401B0228F4
:100B9000F7D903202EE16068B0F5803F04D13068BA
:100BA00040F48030306014E008B930680AE0B0F5F5
:100BB000A02F306806D140F480203060316841F4C5
:100BC000803105E020F480303060316821F48021EC
:100BD0003160606858B100F0F7F90546306881036C
:100BE000A1D400F0F1F9401B6528F7D3D1E700F05C
:100BF000EBF905463068810395D500F0E5F9401B17
:100C00006528F7D3C5E72069A8B10121396000F054
:100C1000DBF905463068810705D400F0D5F9401BA3
:100C20000228F7D9B5E73068616920F0F80040EA9A
:100C3000C100306096E7386000F0C6F905463168BB
:100C400088078FD500F0C0F9401B0228F7D9A0E72C
:100C5000DFF808030168C9084FF47A72B1FBF2F2B9
:100C6000009200BF0098411E00280091F9D1207821
:100C700041076ED5F0690025C10009D4F06940F044
:100C80008050F0610125F06900F0805000900098DC
:100C9000DFF8DC82D8F80000C10520D4D8F80000C5
:100CA00040F48070C8F8000000F08EF98146D8F852
:100CB0000000C10513D400F087F9A0EB09006528F6
:100CC000F5D366E7086000F07FF90546706A810792
:100CD000CDD500F079F9401B0228F7D959E7E06833
:100CE000012808D008B9306A09E00528306A06D121
:100CF00040F004003062306A40F0010005E0400836
:100D000040003062306A20F00400306241F28938DD
:100D1000E06860B100F058F98146306A810713D469
:100D200000F052F9A0EB09004045F6D331E700F09E
:100D30004BF98146306A810706D500F045F9A0EBF2
:100D400009004045F6D324E71DB1F06920F080503A
:100D5000F061E06900284CD0716801F00C010829AD
:100D600038D002282AD100F047F8054630688101C2
:100D700005D500F029F9401B0228F7D909E7206AB8
:100D8000B0F5803F05D17168A06821F400310143BE
:100D900071607268206A616A22F4741202430A4325
:100DA0007260012000F029F804463068810120D4E7
:100DB00000F00AF9001B0228F7D9EAE600F01CF857
:100DC00004463068810114D500F0FEF8001B0228AB
:100DD000F7D9DEE601280AD07068226A00F4803173
:100DE000914202BF00F47010616A884201D0012074
:100DF00000E00020BDE8F2830020386600F0E4B88F
:100E00002DE9F041040088464ED05A4E00F077F8A4
:100E100002D200F06FF847D120684F4D810712D5FC
:100E2000400703D5696841F4E061696020780107F3
:100E300003D5686840F4605068606968A06821F074
:100E4000F001014369602178C80725D56068012851
:100E500002D129688A0303E00228296802D18A01A5
:100E600002D421E08A071FD56968890840EA810019
:100E7000686000F0A9F807466868616800F00C0037
:100E8000B0EB810F08D000F09FF8C01B41F2893110
:100E90008842F1D303202BE0306800F00700804542
:100EA00004D200F027F801D0012021E0207841078A
:100EB00005D56A68E06822F4E06202436A6021783E
:100EC000080706D56968206921F4605141EAC0012C
:100ED000696000F019F86A682749204BC2F30312D1
:100EE000895CC84018601F48006800F0B3FB002010
:100EF000BDE8F0813168C90848EAC1013160306855
:100F000000F00700404570471C4915480A6802F088
:100F10000C03082B00D0704710B500BF1AA4C2F311
:100F20008343D203E35C08D5096858431AA3C1F38D
:100F300040415A5CB0FBF2F010BD184610494843DE
:100F400010BD06480D4A006813680E49C3F302221B
:100F5000FFE7895CC8407047001002402000002075
:100F600000127A001C00002000004242800442422D
:100F700000700040002002402C1F000804100240B6
:100F800000093D00581F0008020304050607080970
:100F90000A0B0C0D0E0F1010010230B40EE00268A7
:100FA000436802440830DC0744BFA9F10104E31898
:100FB00052F8045B43F8045B091FF9D150F8041B95
:100FC0000029ECD130BC704701484068704700BF31
:100FD000140000203EB500F05DFB00F040F800F08A
:100FE0006BFBFFF735FD00F0E1FB00F08EF9DFF859
:100FF0004804DFF84844DFF8485400F038FC00208B
:1010000000F01EF90021082000F02AF94FF4FD60DD
:10101000052101220290019100920223042208215D
:101020003B2000F097F801220421284600F0F0FA56
:10103000322000F0F5FD00220421284600F0E8FAF5
:10104000322000F0EDFD00F03AF822786178A078C7
:1010500000F06AF900F0B4F900F054F9E3E700B5E4
:101060008FB02822002105A800F0F8F914220021F1
:10107000684600F0F3F9022101220591099210213E
:1010800002220A910C9200214FF4E0120D910E926F
:1010900005A8FFF72BFD08B100F0DEF90F200221B3
:1010A000009001910022029203920492012168466D
:1010B000FFF7A6FE08B172B6FEE70FB000BD38B567
:1010C000002000F0A7F800F07F00DFF8704300F088
:1010D000D2F82070012000F09DF800F0CCF860708C
:1010E000022000F097F800F03F0000F0C4F8A07074
:1010F000032000F08FF800F0BEF8E070042000F04C
:1011000089F800F0B8F82071052000F083F800F0AD
:10111000B2F86071102000F07DF80546062000F05E
:1011200079F800F0A8F8642101FB0505E58031BDE0
:10113000E0B54FF47A728DF804008DF80510009236
:10114000022301AAD021BF48FFF78EF808B172B67A
:10115000FEE707BD2DE9F84F07460A9C0B9D0C9E44
:10116000884691469A46002000F054F847EAD01B82
:101170000A2006279BFBF0F007FB00BB5FFA8BF110
:101180000020FFF7D5FF0A2098FBF0F007FB00884E
:101190005FFA88F10120FFF7CBFF09F03F090A2031
:1011A00099FBF0F007FB00995FFA89F10220FFF745
:1011B000BFFF0A209AFBF0F007FB00AA5FFA8AF152
:1011C0000320FFF7B5FF0A2094FBF0F007FB004473
:1011D000E1B20420FFF7ACFF0A2095FBF0F007FB1B
:1011E0000055E9B20520FFF7A3FF642096FBF0F459
:1011F000E1B21020FFF79CFF642000FB1466F6B2FA
:101200000A2196FBF1F107FB0167F9B2BDE8F44F43
:1012100006208DE731B582B08A4C4FF47A7500957F
:10122000012302AAD0212046FFF71EF800950123D2
:1012300001AAD0212046FFF7A7F89DF804003EBD83
:1012400010B5002814BF802400240020FFF7E2FF1F
:1012500000F07F0040EA0401BDE81040002067E78D
:1012600010B50C46C1B20820FFF762FF2146BDE869
:10127000104009205CE701090A2200F00F0002FB80
:101280000100C0B2704770B5054608246E4E2A06AC
:10129000D20F4FF4007100F010F8012200F00BF8AB
:1012A00000F030F8002200F006F800F02BF86D0096
:1012B000641EECD170BD4FF48071304600F0A8B9C7
:1012C00070B50C4615461E46FFF7DDFF2046FFF7BA
:1012D000DAFF2846FFF7D7FF3046FFF7D4FF5B4C15
:1012E000012200F00AF800F00DF8002200F005F8E5
:1012F000BDE87040012000F093BC4FF4807120469F
:1013000000F086B9012000F08BBC38B50024504DA8
:101310002B5D1A4619461846FFF7D2FFFFF7F2FF7A
:10132000641C0A2CF4DB31BD2DE9F0470C4606465F
:101330000A2196FBF1F9464D15F8098001200A278C
:1013400000F06EFC07FB19660120AE5D00F068FC42
:1013500094FBF7F9012015F809A000F061FC07FBE8
:1013600019470120EC5D00F05BFC234652463146F4
:101370004046BDE8F047A3E738B5314D2021284667
:1013800000F040F90024012808BF0124102128465C
:1013900000F038F9012808BF44F00204082128466B
:1013A00000F030F9012808BF44F004040121274867
:1013B00000F028F9012808BF44F00804204632BD97
:1013C000E0B5FFF7D9FF002834D022494A68082841
:1013D00003D1521E48BF092216E00B68092804D128
:1013E0005B1C042B05DB002006E0402806D15B1EB9
:1013F00001D40B6007BD0320086007BD412805D15B
:10140000521C092AC8BF00224A6010E040F2F331A2
:1014100088420FD14FF4FD60052201210290019214
:101420000091022317223B213B20FFF793FEBDE8EA
:101430000E405FE707BD000078000020C0000020DC
:10144000000C014024000020001001400008014071
:10145000000000200C00002072B6FEE710B5044624
:1014600010460A460146204600F0EEFB204610BD1D
:101470002DE9F8474FF0000E0024674A674BDFF86C
:10148000A0814FF00F0982460CE0176838401060C9
:1014900006E055604D68ED03F7D510680743176007
:1014A0000EF1010E0F6837FA0EF000F0A98001204E
:1014B00000FA0EF63740B742F2D1486838B3012837
:1014C0001AD002281DD003282ED0112816D0122899
:1014D0001AD0544DA8421CBF534DA84217D0534DAB
:1014E000A8421CBF524DA84211D0524DA8421CBF69
:1014F000514DA8420BD018E0CC6816E0CC68241DF2
:1015000013E0CC68083410E0CC680C340DE0886837
:1015100008B9042409E0012819BF0824CAF8146096
:101520000824CAF8106000E00024B7F5807F03D2D9
:1015300050464FEA8E0C05E0AEF108050AF10400B2
:101540004FEA850C056809FA0CF6B54304FA0CF667
:10155000354305604868C000A2D5D8F8000040F0C7
:101560000100C8F80000D8F8005005F0010500950A
:101570004FEA8E0500984FEA9E0053F8206005F070
:101580000C0C09FA0CF526EA05052C4EB24508BFED
:10159000002618D02A4EB24508BF012613D0294E86
:1015A000B24508BF02260ED0274EB24508BF03261B
:1015B00009D0264EB24508BF042604D0244EB245B9
:1015C0000CBF0526062606FA0CF6354343F82050D4
:1015D000F8434D68ED0295684CBF3D43054095606A
:1015E0004D68AD02D5684CBF3D430540D5604D68A0
:1015F0005668AD034CBF47EA060500EA060548E712
:10160000BDE8F1878068084018BF0120C0B270476C
:1016100002B909040161704700040140080001405B
:1016200018100240000011100000121000002110DC
:1016300000002210000031100000321000080140AC
:10164000000C01400010014000140140001801404E
:10165000001C014038B50D4D0D4B2A7804464FF45F
:101660007A711868B1FBF2F2B0FBF2F000F062FBA5
:1016700050B9102C08D2002221464FF0FF3000F064
:1016800031FBAC60002032BD012032BD14000020CF
:101690002000002080B50748016841F0100101607A
:1016A000032000F012FB0F20FFF7D4FF00F062FBD5
:1016B000002002BD0020024078B585B01022002134
:1016C0006846FFF7CBFE3048304C0168304D314E54
:1016D00041F020010160026802F0200204920499A6
:1016E000026842F008020260036803F008030493F2
:1016F0000499026842F010020260036803F01003CC
:1017000004930499026842F0040202600022006817
:1017100000F004000490042104982046FFF778FFAD
:1017200000224FF440712846FFF772FF00224FF469
:1017300080713046FFF76CFF042100F02DF8204641
:10174000FFF796FE4FF4407100F026F82846FFF7A9
:101750008FFE4FF4807100F01FF83046FFF788FECF
:101760000120002100900191029130466946FFF767
:101770007FFE3820002100900191029120466946A9
:10178000FFF776FE06B070BD18100240000C014055
:101790000010014000080140009101220192002147
:1017A00002910222039269467047000010B586B08C
:1017B0001022002102A8FFF751FE082200216846EE
:1017C000FFF74CFE214C4FF0804020604F2144F643
:1017D0001F600022E0606160A2602261A261204679
:1017E00000F038F808B1FFF737FE4FF48050029050
:1017F00002A9204600F036F908B1FFF72DFE0021BE
:10180000009101912046694600F0D6FA08B1FFF731
:1018100023FE06B010BD0068B0F1804F00D07047C5
:1018200080B50B48016841F00101016000220068A9
:1018300000F001000090012100981C2000F052FAF5
:10184000BDE802401C2000F06ABA000078000020C9
:101850001C10024038B5040001D1012032BD00F057
:1018600059F818B900F05CF9FFF7D5FF35E090F8AA
:101870003D10012901D001207047022180F83D1060
:101880000168CA6842F00102CA600068DFF870109F
:1018900088421CBFDFF86C2090420ED0B0F1804F20
:1018A0001CBFDFF86410884207D0DFF86020904248
:1018B0001CBFDFF85C10884209D1816801F0070184
:1018C000062908D0016841F00101016003E00268C7
:1018D00042F0010202600020704702206870211D62
:1018E000206800F021F90120A872A870E870287122
:1018F0006871A871E871287268726870002032BD42
:10190000002C014000340140000400400008004069
:10191000000C004004F13C056878704710B504469F
:10192000206801698A0715D5C1688A0712D56FF04A
:101930000201016101222277806910F0030F204625
:1019400002D000F075FA03E000F073FA00F087F8B7
:1019500000202077206801694A0715D5C1684A0729
:1019600012D56FF00401016102222277806910F420
:10197000407F204602D000F05BFA03E000F059FA05
:1019800000F06DF800202077206801690A0715D55E
:10199000C1680A0712D56FF008010161042222779D
:1019A000C06910F0030F204602D000F041FA03E0B6
:1019B00000F03FFA00F053F800202077206801691A
:1019C000CA0615D5C168CA0612D56FF010010161AB
:1019D00008222277C06910F4407F204602D000F030
:1019E00027FA03E000F025FA00F039F8002020770C
:1019F00020680169CA0708D5C168CA0705D56FF014
:101A000001010161204600F015FA206801690A060B
:101A100008D5C1680A0605D56FF08001016120462E
:101A200000F009FA206801694A0608D5C1684A062B
:101A300005D56FF040010161204600F0FDF92068F6
:101A400001698A060AD5C1688A0607D56FF02001A8
:101A500001612046BDE8104000F0EFB910BD2046FE
:101A600000F0ECB970B5064606F13C050024287874
:101A7000012801D1022070BD0120287002226A7065
:101A8000DFF8180132689368034093600868020029
:101A900018BF102830D0202818BF30282CD040285C
:101AA00026D0502819D060281BD0702806D0B0F559
:101AB000805F27D0B0F5005F07D022E000F02BF860
:101AC0003068816841F0770105E000F024F8306863
:101AD000816841F48041816014E000F018F85021E1
:101AE0000BE0CA684968306800F073F8602104E0D0
:101AF00000F00DF8402100E00146306800F07BF86E
:101B000000E001240120687000F00AF870BDCA6886
:101B1000496830684EE0CB684A688968306872E08E
:101B20000021297020467047F0B5DFF874C01D4FC2
:101B300003681D4C1D4D1E4E604518BFB84208D0AD
:101B4000B0F1804F18BFB04203D0A84218BFA042E6
:101B50000DD14A6823F070031343604518BFB842A3
:101B600007D0B0F1804F1CBFB042A84201D0A042C4
:101B700003D1CA6823F4407313434A6923F08003F6
:101B80001343036060458B68C3620A68826212BFB8
:101B9000B8420969016301224261F0BD8800FFFF7C
:101BA000002C014000340140000C004000080040BF
:101BB0000004004010B5036A046A6408640004620B
:101BC00023F00A03846924F0F00444EA02148461D7
:101BD00023E010B5036A046A24F01004046223F0C1
:101BE000A003846924F4704444EA0234846143EA23
:101BF0000113036210BD826822F07002114341F0AC
:101C000007018160704710B5846824F47F44214344
:101C1000114341EA0321816010BD1943016210BDE7
:101C200038B50446FFF7D0F914F1010F054602D08C
:101C3000044908780419FFF7C7F9401BA042FAD3FA
:101C400031BD00BF1400002062F30F2262F31F4277
:101C5000401810F0030308D0C91A1FD3DB0748BF90
:101C600000F8012D28BF20F8022D130030B41446CF
:101C70001546103928BF20E93C00FAD8490728BF8B
:101C800020E90C0048BF40F8042D890028BF20F847
:101C9000022D48BF00F8012D30BC7047C91818BF8D
:101CA00000F8012DCB0728BF00F8012D7047000078
:101CB0000901020002D4294881547047284B02F0E0
:101CC0000F021A4402F8041C7047264B19684FF69D
:101CD000FF020002114000F4E0600843224908437B
:101CE0001860704770B51F4B1C68C4F302230124B1
:101CF000C3F10705052D2EBF0F2504FA05F56D1E4E
:101D00001E1D072E34BF0023DB1E2940994004FA14
:101D100003F3BDE870405B1E1A401143C8E70100A1
:101D200007D4012200F01F01104B8A40400943F8FC
:101D30002020704710B5401EB0F1807F01D30120F4
:101D400010BD0B4C60600F214FF0FF30FFF7B0FF6C
:101D50000021A16007202060002010BD00E400E009
:101D600018ED00E00CED00E00000FA0500E100E0F5
:101D700010E000E00E4881B0016841F0010101600F
:101D8000026802F0010200920099426842F080521B
:101D90004260406800F0805000900098054801685B
:101DA00021F0E06141F00071016001B0704700BFB7
:101DB000181002400400014070B500F13C031A788D
:101DC000012A01D1022070BD01221A7002245C7028
:101DD00005686E68AC680A6826F0700616436E6087
:101DE00002680E4882421CBF0E4DAA420BD0B2F1CF
:101DF000804F1CBF0C48824205D0094DAA421CBF2F
:101E00000A48824204D1486824F080040443946064
:101E1000012159700020187070BD0000002C014095
:101E2000000800400034014000040040000C004065
:101E300070477047704770477047704770470000A1
:101E400010B5074979441831064C7C44163404E037
:101E50000A68081D114488470146A142F8D110BD07
:101E60002C0000004C000000C0F9A4B0999282F848
:101E7000809000000200000000000000010000004F
:101E800000000000100000000024F4008BEBFFFFB6
:101E9000A40000002400002000000000FFF0FFFF6D
:101EA00024000000C4FFFFFF00000020000000002D
:101EB000FEE7FEE7FEE7FEE7FEE770477047704784
:101EC00000F006B80148FFF729BD000078000020A7
:101ED00002494A68087882184A6070471400002056
:101EE00000F00DF8002801D0FFF7AAFFAFF3008043
:101EF0000020AFF30080FFF76DF800F002F801203A
:101F0000704700F001B800000746384600F002F8BC
:101F1000FBE7000080B5AFF30080024A11001820F3
:101F2000ABBEFBE726000200704700000000000087
:101F30000000000001020304060708090148804769
:101F400001480047291F00084D1F0008AFF300801B
:101F5000AFF30080FFF7C4FF00000000010203049C
:101F6000FFF7FEBFFFF7FEBFFFF7FEBFFFF7FEBFA5
:101F7000FFF7FEBFFFF7FEBFFFF7FEBFFFF7FEBF95
:101F8000FFF7FEBFFFF7FEBFFFF7FEBFFFF7FEBF85
:101F9000FFF7FEBFFFF7FEBFFFF7FEBFFFF7FEBF75
:101FA000FFF7FEBFFFF7FEBFFFF7FEBFFFF7FEBF65
:101FB000FFF7FEBFFFF7FEBFFFF7FEBFFFF7FEBF55
:101FC000FFF7FEBFFFF7FEBFFFF7FEBFFFF7FEBF45
:101FD000FFF7FEBFFFF7FEBFFFF7FEBFFFF7FEBF35
:101FE000FFF7FEBFFFF7FEBFFFF7FEBFFFF7FEBF25
:101FF000FFF7FEBFFFF7FEBFFFF7FEBFFFF7FEBF15
:10200000FFF7FEBFFFF7FEBFFFF7FEBFFFF7FEBF04
:10201000FFF7FEBFFFF7FEBFFFF7FEBFFFF7FEBFF4
:10202000FFF7FEBFFFF7FEBFFFF7FEBFFFF7FEBFE4
:10203000FFF7FEBFFFF7FEBFFFF7FEBFFFF7FEBFD4
:0C204000FFF7FEBFFFF7FEBFFFF7FEBF7B
:0400000508001F4D83
:00000001FF
