:020000040800F2
:10000000A0060020E13100081D3100081F31000862
:1000100021310008233100082531000800000000CC
:100020000000000000000000000000002731000870
:1000300029310008000000002B3100082D31000894
:1000400005320008093200080D320008113200089C
:1000500015320008193200081D320008213200084C
:1000600025320008293200082D32000831320008FC
:1000700035320008393200083D32000841320008AC
:1000800045320008493200084D320008513200085C
:1000900055320008593200085D320008613200080C
:1000A00065320008693200086D32000871320008BC
:1000B0007532000831310008793200087D320008BD
:1000C0008132000885320008893200088D3200082C
:1000D0009132000895320008993200089D320008DC
:1000E000A1320008A5320008A9320008AD3200088C
:1000F000B1320008B5320008B9320008BD3200083C
:10010000C1320008C5320008C9320008CD320008EB
:10011000D1320008D5320008D9320008DD3200089B
:10012000E1320008E5320008E9320008ED3200084B
:100130001E20002100F05EBB10B504460121A0681E
:10014000C268237C01FA03F39A43C260E268D36871
:10015000607C814023EA0101D16000F07BF800F06F
:100160008EF82046BDE81040F8E07FB50546089CB3
:10017000A9601646EB602E746C74684600F0B4FB00
:100180009DF80220A968334600F0DCFB00F01FFB5D
:100190009DF80220E9682346684600F0D3FB00F092
:1001A00016FB284600F0F2FA7FBD10B50446214642
:1001B000204600F001F90028F9D0611C204600F02B
:1001C00013F90028F9D0A11C204600F034F90028CA
:1001D000F9D010BD70B504460D4600F005FA0026B2
:1001E000C6F1070125FA01F0C007204602D500F04C
:1001F0006EFA01E000F008FA00F02CF800F05BF86D
:1002000000F072F800F057F8761CF0B20828E7DB2F
:1002100070BD70B5044600F0E7F900F030F8002535
:10022000002600F017F81E20002100F0E3FA204617
:1002300000F0A4FAC6F107018840054300F054F825
:100240001E20002100F0D6FA761CF0B20828E8DB68
:10025000E8B270BD204606E210B5044600F003FA8D
:10026000204600F086FA0028FAD000F024F800F0CA
:1002700006F800F020F8204600F0C6F940E02046DD
:1002800025E210B5044600F0EEF9204600F071FAC0
:100290000028FAD000F00FF8204600F0B5F900F081
:1002A0000AF8FFF7ECFF00F006F8FFF7E8FF20463A
:1002B000BDE81040D7E120463AE738B5044600F0E3
:1002C00006FAFFF7C7FF204600F053FA0028FAD0DD
:1002D000FFF7F1FF204600F051FA054600F004F860
:1002E000FFF7E9FF284632BD20467DE110B5044600
:1002F00011B100F0ECF901E000F086F9FFF7AAFF78
:10030000FFF7D9FFFFF7F0FF2046BDE810400FE7E9
:1003100038B50446FFF7A0FFA17C00F0B7F800F065
:10032000B0F860B9002100F0B1F800F0AAF830B9D7
:1003300000F0A3F800F0A7F800F0A3F818B100F05F
:100340009EF8002032BD00F0B7F8054600F0A1F895
:1003500000F095F8ED0985F0010032BD1CB50446AA
:10036000FFF7D6FF10BB6946204600F064F8F0B1F5
:1003700000F083F8A17C00F089F800F082F890B9D1
:10038000002100F083F800F07CF860B99DF80010BF
:100390000A2291FBF2F2062000FB021100F075F830
:1003A00000F06FF800B103E000F069F8012016BD1D
:1003B00000F065F8002016BD70B500F07FF8A17C54
:1003C00000F064F800F05DF860B9022100F05EF81A
:1003D00000F057F830B900F050F800F054F800F091
:1003E00050F800B122E057E070B500F067F8A17C4A
:1003F00000F04CF800F045F860B9012100F046F833
:1004000000F03FF830B900F038F800F03CF800F0A8
:1004100038F800B10AE000F04FF800F039F800F0C9
:100420002EF806F00F01C6F302123FE02046FFF758
:1004300028FF002070BD70B500F040F8A17C00F0EE
:1004400025F800F01EF860B9002100F01FF800F058
:1004500018F830B900F011F800F015F800F011F8B4
:1004600000B1E3E700F028F800F012F800F007F818
:1004700006F00F01C6F3021218E02046ECE6204613
:10048000FFE6204619E7A17C491CC9B22046A1E637
:1004900006460121204629E700F00EF8FFF7F8FF95
:1004A000FFF7EDFF06F00F01C6F301120A2000FB73
:1004B00002112970012070BD2046AAE604460D46AF
:1004C000CAE670B500F04CF815D2FFF7D6FFA17C54
:1004D000FFF7DCFFFFF7D5FF58B92946FFF7D6FF36
:1004E000FFF7CFFF28B93146FFF7D0FFFFF7C9FF6D
:1004F00018B1FFF7C4FF002070BD2DE070B50446B1
:100500000D461646324629462046FFF7DAFF0028F8
:10051000F8D070BD70B500F023F816D2FFF7ADFF2C
:10052000A17CFFF7B3FFFFF7ACFF60B92946FFF7E7
:10053000ADFFFFF7A6FF30B9FFF79FFFFFF7A3FF5F
:10054000FFF79FFF18B1FFF79AFF002070BDFFF77C
:10055000B3FF3070FFF79DFFFFF791FF012070BDE3
:1005600004460D46A5F1080038281646704738B5F0
:10057000002304460D468DF800306A462946204681
:10058000FFF7C8FF0028F8D09DF8000032BD70B515
:1005900004460D46281F1C2816460DD26900120A73
:1005A000C9B22046FFF7AAFF6D006D1CF2B2E9B296
:1005B0002046BDE87040A1E770BD70B504460D4609
:1005C000681F1B2801D3002070BD6900C9B22046F6
:1005D000FFF7CDFF6D0006466D1CE9B22046FFF720
:1005E000C6FF40EA062070BD30B5037C8168012259
:1005F000082B04DA00F021F800F057F825E000F0AD
:1006000013F800F040F827E030B5437CC1680122C0
:10061000082B04DA00F011F800F07BF815E000F088
:1006200003F800F064F817E0083B4C689B0002FAFE
:1006300003F31C434C604B6870470D689B0002FA43
:1006400003F32B430B600B6870478000C01C824093
:1006500023EA02020A6030BD80001D38824023EA8E
:1006600002024A6030BD30B5037C81680122082B4C
:1006700004DA00F069F800F018F86EE000F05BF8BA
:1006800000F001F86FE0047CA4001F3C02FA04F4BF
:10069000A3434B604B68047CA4001E3C02FA04F4A4
:1006A000A3434B604B68007C7047047CA400641C2F
:1006B00002FA04F4A3430B600B68047CA400A41C9E
:1006C00002FA04F4A3430B600B68007C704730B55A
:1006D000437CC1680122082B04DA00F035F800F0F1
:1006E00018F83AE000F027F800F001F83BE0447C0D
:1006F000A4001F3C02FA04F4A3434B604B68447C03
:10070000A4001E3C02FA04F4A3434B604B68407CF7
:100710007047447CA400641C02FA04F4A3430B60F9
:100720000B68447CA400A41C02FA04F4A3430B60ED
:100730000B68407C7047083B4C689B0002FA03F34F
:100740009C434C604B6870470D689B0002FA03F3B2
:1007500025EA03030B600B6870478000C01C8240D1
:100760001A430A6030BD80001D3882401A434A6037
:1007700030BD014688688068097C03E00146C8688E
:100780008068497CC84000F0010070471FB50446EE
:10079000684600F0A9F8237C9DF80020A16800F0CD
:1007A000D1F800F014F8217C0022684600F078F9B6
:1007B000637C9DF80020E168684600F0C3F800F013
:1007C00006F8617C0022684600F06AF91FBD6846A1
:1007D00000F021B91DE038B504460D4600F027F8B9
:1007E00024184D4100F023F8A942FBD301D8A042C0
:1007F000F8D331BD38B504460D4600F03EF8241854
:100800004D4100F03AF8A942FBD301D8A042F8D3F9
:1008100031BD314841F29411816000222F490A60B4
:10082000C0E900222E48486001220A6070472DE985
:10083000F0472A4A28491068C0F3004050B11068B8
:1008400020F480301060D1E90045661C65F1FF3767
:10085000C1E90067D1E90089926821488968801A56
:100860004FF47A7AB0FBF1F0AAFB084500210AFBAD
:10087000095520186941BDE8F0872DE9F04E00F0D8
:1008800025F830B100F01BF8601C65F1FF39C2E9B2
:100890000009D2E900AB134C114BA4FB0A6704FB1F
:1008A0000B778C681B1B4FF47A70A0FB03019268D6
:1008B000002300F001F930187941BDE8F08E086896
:1008C00020F480300860D2E9004570470349024AAD
:1008D0000868C0F3004070470000002010E000E00E
:1008E00020AA440040420F00002101700122032190
:1008F0004270C17004220521027141710223062257
:10090000072183708271C171704730B4002513E0F4
:1009100050F8042BD30744BFA9F101039A18091F0B
:10092000042942F8045BFAD213468C0744BF1580B1
:100930009B1CC90748BF1D7050F8041B0029E7D154
:1009400030BC7047F8B581600025521E0124062A8C
:1009500004FA03F11AD8DFE802F004060B121416A9
:100960001800042512E08268D6680825314304E0A7
:100970008268D668082526EA0101D16006E00325D1
:1009800004E0072502E00B2500E00F258268082B14
:100990001DDA9B00166804FA03F18E431660591C99
:1009A000176804FA01F18F4317609E1C116804FA5E
:1009B00006F6B1431160D91C17688C4027EA04047D
:1009C000146005FA03F31468234313601DE0083B29
:1009D0009B00566804FA03F18E435660591C576811
:1009E00004FA01F18F435760991C566804FA01F12B
:1009F0008E435660D91C56688C4026EA0404546025
:100A000005FA03F3546823435360BDE8F24002E063
:100A10001346032296E78168194A1A48914203D186
:100A2000016841F0040128E0174A914203D10168AE
:100A300041F0080121E0154A914203D1016841F0DB
:100A400010011AE0124A914203D1016841F02001DD
:100A500013E0104A914203D1016841F040010CE0DB
:100A60000D4A914203D1016841F0800105E00B4A33
:100A7000914203D1016841F4807101607047000028
:100A80000008014018100240000C01400010014015
:100A90000014014000180140001C014000200140EA
:100AA00080680123002AC26803FA01F114BF1143D0
:100AB00022EA0101C1607047D3BBD9B1B2F5803FD2
:100AC0005BD2022A1ED98C46B1FBF2F102FB11C3A4
:100AD0001B0443EA1043B3FBF2FC02FB1C3380B25D
:100AE00040EA0343B3FBF2F002FB103240EA0C4051
:100AF00000237047022A05D98446B0FBF2F002FBBE
:100B000010C270474AB105D100F0010249085FEAFE
:100B10003000704700220023704700F051B80B00EE
:100B20000200002100207047F7D300220023704705
:100B3000904271EB030CF2D370B5B1FA81F4B3FAC1
:100B400083F52C1BA340C4F1200532FA05F633438C
:100B5000A2405FF00046E64002E05B085FEA320236
:100B6000841A71EB030524BF204629467641F4D34D
:100B700002000B003000002170BD70B5B1FA81F4A5
:100B8000B2FA82F5C4F120046419B4F12006DAD374
:100B9000B2405FF00044F440002502E052085FEAF2
:100BA0003303C61A71EB020E24BF3046714664410E
:100BB0006D41F3D302000B002000290070BD00003E
:100BC0007047000038B5040001D1012032BD00F0AB
:100BD00067F818B900F060F800F01EFB41E090F8EB
:100BE0003D10012901D001207047022180F83D10FD
:100BF0000168CA6842F00102CA600068DFF8881024
:100C000088421CBFDFF8842090420ED0B0F1804FA4
:100C10001CBFDFF87C10884207D0DFF878209042B4
:100C20001CBFDFF88410884209D1816801F00701F8
:100C3000062908D0016841F00101016003E0026863
:100C400042F0010202600020704738B5040001D173
:100C5000012032BD00F024F818B900F01DF800F0B2
:100C6000F5FA02206870211D206800F045F9012086
:100C7000A872A870E87028716871A871E87128726C
:100C800068726870002032BD002C014000340140C1
:100C900000040040000800400021297020467047F1
:100CA00004F13C0568787047000C004010B504461C
:100CB000206801698A0715D5C1688A0712D56FF0C7
:100CC0000201016101222277806910F0030F2046A2
:100CD00002D000F0D7FA03E000F0D5FA00F087F870
:100CE00000202077206801694A0715D5C1684A07A6
:100CF00012D56FF00401016102222277806910F49D
:100D0000407F204602D000F0BDFA03E000F0BBFABD
:100D100000F06DF800202077206801690A0715D5DA
:100D2000C1680A0712D56FF0080101610422227719
:100D3000C06910F0030F204602D000F0A3FA03E0D0
:100D400000F0A1FA00F053F8002020772068016934
:100D5000CA0615D5C168CA0612D56FF01001016127
:100D600008222277C06910F4407F204602D000F0AC
:100D700089FA03E000F087FA00F039F800202077C4
:100D800020680169CA0708D5C168CA0705D56FF090
:100D900001010161204600F077FA206801690A0626
:100DA00008D5C1680A0605D56FF0800101612046AB
:100DB00000F06BFA206801694A0608D5C1684A0646
:100DC00005D56FF040010161204600F05FFA206810
:100DD00001698A060AD5C1688A0607D56FF0200125
:100DE00001612046BDE8104000F051BA10BD204618
:100DF00000F04EBA10B5044694F83C00012801D129
:100E0000022010BD012084F83C004AB1042A0BD016
:100E1000082A0DD00C2A04BF206800F032F90AE03D
:100E2000206800F0A3F806E0206800F0CBF802E0AC
:100E3000206800F0F7F8002084F83C0010BD38B5B9
:100E400000F04EF801D1022032BD012020700222B4
:100E50006270DFF874022A68936803409360086840
:100E6000020018BF10282DD0202818BF302829D004
:100E7000402823D0502816D0602818D0702803D0DE
:100E8000B0F5005F07D021E000F025F82868816800
:100E900041F0770105E000F01EF82868816841F410
:100EA0008041816012E000F012F850210BE0CA6826
:100EB0004968286800F023F9602104E000F007F891
:100EC000402100E00146286800F02BF90EE0CA68D6
:100ED0004968286804E1CB684A688968286828E17D
:100EE000054605F13C042078012870470120607018
:100EF00000212170002032BDF0B5DFF8D0C1744F61
:100F00000368744C744D754E604518BFB84208D0E4
:100F1000B0F1804F18BFB04203D0A84218BFA04222
:100F20000DD14A6823F070031343604518BFB842DF
:100F300007D0B0F1804F1CBFB042A84201D0A04200
:100F400003D1CA6823F4407313434A6923F0800332
:100F50001343036060458B68C3620A68826212BFF4
:100F6000B8420969016301224261F0BDF0B5026A2D
:100F7000564F520852000262066A446885690B683F
:100F80008A6825F0730526F002061D431643504B70
:100F9000B84218BF984207D1CA6826F0080616431F
:100FA000B84226F0040601D0984205D14B698A69FF
:100FB00024F440741C4314434460856149684163D0
:100FC0000662F0BDF0B5026A404E22F010020262E5
:100FD000B042056A436884690A6824F4E64444EA36
:100FE00002248A6825F0200545EA0215384A18BF10
:100FF000904208D1CF6825F0800545EA0715B04238
:1010000025F0400501D0904206D14E698A6923F44B
:101010004063164343EA8603436084614968816301
:101020000562F0BDF0B5026A22F480720262056AC0
:101030004368C4698E680A6825F4007524F0730457
:1010400045EA06251443214E214AB04218BF90427A
:1010500008D1CF6825F4006545EA0725B04225F49C
:10106000806501D0904206D14E698A6923F44053CD
:10107000164343EA06134360C4614968C1630562CD
:10108000F0BD70B5026A114E22F480520262B04285
:10109000046A4268C3690D6823F4E64343EA052302
:1010A0008D6824F4005444EA05341CBF084DA8425E
:1010B00004D14D6922F4804242EA85124260C36144
:1010C00049680164046270BD8800FFFF002C014084
:1010D00000340140000C00400008004000040040C3
:1010E00010B5036A046A64086400046223F00A030A
:1010F000846924F0F00444EA0214846123E010B50A
:10110000036A23F0100303628369046A23F47043C3
:1011100043EA023324F0A004836144EA0114046228
:1011200010BD826822F07002114341F00701816016
:10113000704710B5846824F47F442143114341EA89
:101140000321816010BD1943016210BD10B586B046
:101150001022002102A800F09CF800F051F8444C45
:101160004448206023214FF6FF700022E060616058
:10117000A2602261A2612046FFF724FD08B100F0C1
:1011800027F94FF48050029002A92046FFF757FE3E
:1011900008B100F01DF900F038F808B100F018F9B6
:1011A00006B010BD18B589B000F02AF81C22002145
:1011B00002A800F06EF8304C3048206000214FF655
:1011C000FF70E0606160A1602161A1612046FFF7CE
:1011D0003CFD08B100F0FCF800F017F808B100F091
:1011E000F7F800210291002204910392069202A9CD
:1011F0002046FFF7FFFD08B100F0EAF80AB010BD85
:1012000008220021684600F044B8002100910191B5
:101210002046694600F0DEB800681649884200D0D2
:10122000704780B51648026842F002020260002250
:10123000006800F002000090002100981D2000F0DE
:101240001FF9BDE802401D2000F037B981B00068E9
:101250000A49884209D10A48026842F00402026041
:10126000006800F004000090009801B07047000092
:101270000C0200200004004054020020000800403E
:101280001C100240704770477047704770477047A6
:10129000704710B5044610460A460146204600F045
:1012A00037F9204610BD0000F8B500F03BF900F01A
:1012B0005BF800F049F900F0E3F9FFF747FFFFF7AB
:1012C00071FF00F05EFA1D481D4C1E4D1E4E1F4F53
:1012D000FFF785FC2046FEF768FF00F0F2FB28468A
:1012E00000F0A0FC304600F059FD1948194A017879
:1012F000194B117018781949194A08701378194850
:10130000037012E0304600F07BFD08E0304600F04C
:101310004BFDC828F6D2386820F00400386020461B
:10132000FEF743FF284600F07DFC304600F03CFD10
:101330006428EBD2386840F00400EFE70C0200208C
:101340006001002084000020000100200C0C0140FE
:101350007B010020780100207C0100207901002021
:101360007D0100207A01002000B58FB028220021E5
:1013700005A8FFF78EFF142200216846FFF789FFBA
:101380004FF480310022069107920D9101200590C3
:10139000099002224FF4E0110C920E9105A800F082
:1013A00033FD08B172B6FEE702210191802202925C
:1013B0000F204FF4806100900391002204920221DB
:1013C000684600F0ABFE08B172B6FEE70FB000BD94
:1013D00072B6FEE770B500F13C031A78012A01D11C
:1013E000022070BD01221A7002245C7005686E68CC
:1013F000AC680A6826F0700616436E6002680E48F4
:1014000082421CBF0E4DAA420BD0B2F1804F1CBFCE
:101410000C48824205D0094DAA421CBF0A488242AC
:1014200004D1486824F08004044394600121597079
:101430000020187070BD0000002C01400008004022
:101440000034014000040040000C0040090102008B
:1014500002D4294881547047284B02F00F021A44E5
:1014600002F8041C7047264B19684FF6FF02000271
:10147000114000F4E06008432249084318607047B7
:1014800070B51F4B1C68C4F302230124C3F1070588
:10149000052D2EBF0F2504FA05F56D1E1E1D072E06
:1014A00034BF0023DB1E2940994004FA03F3BDE852
:1014B00070405B1E1A401143C8E7010007D40122A7
:1014C00000F01F01104B8A40400943F8202070476C
:1014D00010B5401EB0F1807F01D3012010BD0B4C30
:1014E00060600F214FF0FF30FFF7B0FF0021A160D7
:1014F00007202060002010BD00E400E018ED00E0AF
:101500000CED00E00000FA0500E100E010E000E072
:101510004018491C1CBFB1F1010100F8012DF9D19F
:101520007047000080B50748016841F01001016074
:101530000320FFF798FF0F2000F0BEFE00F0DCFE56
:10154000002002BD002002402DE9F84185B01022A4
:1015500000216846FFF79DFE3F48404C0168404D22
:10156000404FDFF8048141F02001016043F206069C
:10157000026802F0200204920499026842F010020C
:101580000260036803F0100304930499026842F0B8
:1015900004020260036803F00403049304990268E0
:1015A00042F0080202600022006800F00800049087
:1015B0004FF4C0710498204600F08AFF00224FF4D7
:1015C0004471284600F084FF00223146384600F07E
:1015D0007FFF00220421404600F07AFF0420002112
:1015E00000900191022202926946284600F0A6FE70
:1015F000032000210090019102912046694600F0ED
:101600009DFE4FF4C07100F031F8204600F096FEC8
:101610004FF4447100F02AF8284600F08FFE0120B4
:1016200002210190002203910292009669463846F9
:1016300000F084FE042100F019F8404600F07EFE20
:10164000382000210090019102913846694600F04F
:1016500075FE06B0BDE8F081181002400008014098
:1016600000100140000C01400014014000910122D3
:101670000192002102910222039269467047000004
:10168000214A2248224980B5426000234FF480421B
:1016900001608360C360026143618361C36103626F
:1016A00000F038FF18B1BDE80140FFF791BE01BD61
:1016B00018B585B004461022002101A8FFF7E9FD06
:1016C0002168134881421CD1124C216841F0080165
:1016D0002160C021206800F00800009012220098CC
:1016E0000D48019102920321049101A900F026FE08
:1016F000606840F400106060606800F400100090C2
:10170000009806B010BD0000A0860100B8010020BE
:101710000054004018100240000C014010B5DFF8E2
:101720002044DFF820144FF47A7204F1F00000F046
:10173000ADFA4FF4FA624FF0804104F5887000F082
:10174000A5FA4FF47A72DFF80014DFF8000400F015
:101750009DFA04F59870BDE810404FF47A72DFF8F6
:10176000F01300F093BA00F10A01C9B2DFF8E40304
:10177000FEF723BF0A460A30C1B2DFF8D803FEF7EE
:1017800006BF78B585B0FFF725F800F021F9DFF83E
:10179000B053DFF8C46305F1650000F067FFF0683F
:1017A00020F00400F060032400F058F8F06820F006
:1017B000040000F056F8641EF6D10720009033466E
:1017C000DFF89043062231462046FEF7CEFC204645
:1017D000FEF7B2FC4FF4FA7000F0FBF8032400F0BF
:1017E0003DF8F06820F0040000F03BF8641EF6D1EC
:1017F0000222DFF8681305F16800FFF709F900F02D
:1018000049FF0020DFF858130322042304900391BA
:1018100002920093019633460522314605F1740089
:1018200000F0A0F905F18C040421204600F0B4FF7B
:101830000421284600F0B0FF284601F0D7F82046E2
:1018400001F0D4F8204601F071F9284601F06EF954
:1018500000F00CF806B0BDE870408EE0F06840F093
:101860000400F06000213220FEF7B5BF38B500203B
:10187000FFF779FF4AF6CD35A842DFF8D84204D009
:1018800029460020FFF776FF35E00220FFF76BFFC7
:10189000E0760320FFF767FF20770420FFF763FF60
:1018A00060770520FFF75FFF20760620FFF75BFFDC
:1018B00060760720FFF757FFA076E07E6428A4BF7C
:1018C0006321E176207F3C28A4BF3B212177607F04
:1018D0003C28A4BF3B216177207E6428A4BF6321FC
:1018E0002176607E3C28A4BF3B216176A07E3C2807
:1018F000A4BF3B21A17600F005F82046FEF755FC79
:10190000BDE8314010B5DFF84C42E07E6428A4BF4A
:101910006321E176207F3C28A4BF3B212177607FB3
:101920003C28A4BF3B216177207E6428A4BF6321AB
:101930002176607E3C28A4BF3B216176A07E3C28B6
:10194000A4BF3B21A176E17E0220FFF713FF217F98
:101950000320FFF70FFF617F0420FFF70BFFFFE776
:10196000217E0520FFF706FF617E0620FFF702FFBC
:10197000A17EBDE810400720FCE63EB50025DFF85B
:10198000C04100F01EF8FF21009100F015F8C820BA
:1019900000F01FF86D1CEAB20C2AF2DB002500F003
:1019A00010F8FF20009000F007F800F011F86D1C0F
:1019B000E8B20C28F3DB37BD01230122012101A885
:1019C0000DE0EBB2042201A904F1640001F021B999
:1019D00064200021FEF7FFBE384600F0E5B9FCB5F3
:1019E0000E4683B017461C46DFF8545101460C23BF
:1019F0006A4605F1640001F003F96EB19DF801102B
:101A00000A2903DA687841188DF801109DF8021050
:101A10000A2909DA287804E09DF802100A2903DA75
:101A2000687841188DF802103FB19DF805100A2919
:101A300003DA687841188DF805109DF807100A2917
:101A400003DA687841188DF80710ACB19DF80810DA
:101A50000A2903DAE87841188DF808109DF8091072
:101A60000A2903DA687841188DF809109DF80A10E0
:101A70000A2909DAE87804E09DF80A100A2903DA4D
:101A8000687841188DF80A1005F1F0070A9C38466D
:101A900000F084F90C2C0EDAFFF79EFF642803D2C5
:101AA00020200DF8040006E0FFF796FFC92824BFA8
:101AB000384600F0A5F96946284600F0E3FF05B076
:101AC000F0BD38B5FFE7DFF88C20137E0A2093FBCA
:101AD000F0F40A2584B00A2101FB143394FBF5F5D8
:101AE0008DF80B3001FB15458DF80A500A24537E02
:101AF000927E93FBF4F401FB14338DF80D300A252C
:101B00000A2392FBF3F394FBF5F501FB15450A2438
:101B100093FBF4F401FB143401FB13218DF80F1037
:101B20008DF80C50FF2100918DF80E4000F002F866
:101B300005B030BD01230122012101A84FE70000BB
:101B400010000020002C014000040040880100200B
:101B50000008004060010020000C0140001001401E
:101B6000000801402DE9F64F83B004460E9DDDF8D4
:101B70003CA0109EDDF844B0129F88469946684606
:101B8000FEF7B2FEC4F80080C4F80490C4F808A0C0
:101B9000C4F80CB0049820746574A674E7740498B3
:101BA0009DF802202168C3B200F01AF89DF80220C7
:101BB0006168EBB200F014F89DF80220A168F3B25E
:101BC00000F00EF89DF80220E168FBB200F008F882
:101BD000204600F027F80028FAD105B0BDE8F08FC4
:101BE0006846FEF7AFBE02689368027C0021D340CE
:101BF0004268DB079368427C48BF0821D340826873
:101C0000DB079368827C48BF091DD340C268DB07AD
:101C10009368C07C48BF891CC340DA0748BF491C91
:101C2000C8B2704770B50546FFF7DDFF0446287D52
:101C3000002684B928B32846FFF7D5FF28B900F05D
:101C400021F8761CF2B20A2AF5DBF6B20A2E17D179
:101C50000020287514E0A04201D1002070BD284664
:101C6000FFF7C1FFA04205D100F00CF8761CF0B2DE
:101C70000A28F4DBF6B20A2E02D12C75204670BD7C
:101C8000002070BD01200021FEF7A5BD38B5044637
:101C900000202070012363700320E07004230225DC
:101CA0002371A570052060710623A3710725E571D6
:101CB000204600F002F8204632BD2DE9F0410746EB
:101CC0004448F8600D463A61B9604FF6FF70E8622B
:101CD000414942488D4203D1036843F4006331E037
:101CE000B5F1804F04D1416841F0010141602AE023
:101CF0003B498D4203D1436843F002031AE039495E
:101D00008D4203D1436843F0040313E036498D420A
:101D100003D1436843F008030CE034498D4203D1FA
:101D2000436843F0100305E031498D4204D1436814
:101D300043F02003436006E02E498D4203D103683F
:101D400043F400530360F868B0FBF2F6B6F5803F49
:101D500088BF4FF4803601D806B90126741EAC62E4
:101D6000F86800F05DFF00F013F800F00CF8224670
:101D7000434600F063FFC7E90601686940F00100CF
:101D80006861BDE8F08104468846304600F048BFEF
:101D900002460B460020184901F022B8806801680D
:101DA00041F001010160704738B500F00EF800F015
:101DB00008F80022114B01F013F8BDE8344001F09F
:101DC00033B9D4E9062300F039BF0446A568686A30
:101DD00000F026BF00512502002C014018100240DF
:101DE0000004004000080040000C004000100040CB
:101DF000001400400034014065CDCD4180842E4167
:101E000080680021416270472DE9F843040016D034
:101E10002078DFF86064C10713D5706800F00C000B
:101E2000042807D0706800F00C00082841D17068C1
:101E3000C1033ED53068810303D56068002800F0F7
:101E400064812078DFF83C74810719D5706810F040
:101E50000C0F07D0706800F00C00082861D1706882
:101E6000C1035ED43068810703D52069012840F0A2
:101E70004C813168606921F0F80141EAC0013160AC
:101E80002178080740F18180A069DFF8FC13002861
:101E900000F0A68001220A6001F0DAF80546706AB7
:101EA000810763D401F0D4F8401B0228F7D903203E
:101EB0002EE16068B0F5803F04D1306840F4803096
:101EC000306014E008B930680AE0B0F5A02F30683F
:101ED00006D140F480203060316841F4803105E063
:101EE00020F480303060316821F4802131606068F6
:101EF00058B101F0ADF8054630688103A1D401F076
:101F0000A7F8401B6528F7D3D1E701F0A1F80546F3
:101F10003068810395D501F09BF8401B6528F7D305
:101F2000C5E72069A8B10121396001F091F80546A3
:101F30003068810705D401F08BF8401B0228F7D9DF
:101F4000B5E73068616920F0F80040EAC100306010
:101F500096E7386001F07CF80546316888078FD530
:101F600001F076F8401B0228F7D9A0E7DFF8080354
:101F70000168C9084FF47A72B1FBF2F2009200BF17
:101F80000098411E00280091F9D1207841076ED5B4
:101F9000F0690025C10009D4F06940F08050F0617B
:101FA0000125F06900F0805000900098DFF8DC8295
:101FB000D8F80000C10520D4D8F8000040F48070A3
:101FC000C8F8000001F044F88146D8F80000C105C7
:101FD00013D401F03DF8A0EB09006528F5D366E7BE
:101FE000086001F035F80546706A8107CDD501F02B
:101FF0002FF8401B0228F7D959E7E068012808D0DC
:1020000008B9306A09E00528306A06D140F00400BA
:102010003062306A40F0010005E040084000306264
:10202000306A20F00400306241F28938E06860B123
:1020300001F00EF88146306A810713D401F008F8E8
:10204000A0EB09004045F6D331E701F001F88146E5
:10205000306A810706D500F0FBFFA0EB0900404580
:10206000F6D324E71DB1F06920F08050F061E069FB
:1020700000284CD0716801F00C01082938D00228E2
:102080002AD100F047F805463068810105D500F0F7
:10209000DFFF401B0228F7D909E7206AB0F5803F2F
:1020A00005D17168A06821F4003101437160726844
:1020B000206A616A22F4741202430A4372600120AA
:1020C00000F029F804463068810120D400F0C0FFF8
:1020D000001B0228F7D9EAE600F01CF80446306835
:1020E000810114D500F0B4FF001B0228F7D9DEE609
:1020F00001280AD07068226A00F48031914202BF40
:1021000000F47010616A884201D0012000E00020D4
:10211000BDE8F2830020386600F09ABF2DE9F04157
:10212000040088464ED05A4E00F077F802D200F0F4
:102130006FF847D120684F4D810712D5400703D56E
:10214000696841F4E06169602078010703D5686837
:1021500040F4605068606968A06821F0F0010143B4
:1021600069602178C80725D56068012802D12968EF
:102170008A0303E00228296802D18A0102D421E0FF
:102180008A071FD56968890840EA8100686000F005
:102190005FFF07466868616800F00C00B0EB810FD4
:1021A00008D000F055FFC01B41F289318842F1D3BD
:1021B00003202BE0306800F00700804504D200F0D7
:1021C00027F801D0012021E02078410705D56A6871
:1021D000E06822F4E06202436A602178080706D5CD
:1021E0006968206921F4605141EAC001696000F02A
:1021F00019F86A682749204BC2F30312895CC8406A
:1022000018601F48006800F057F80020BDE8F08112
:102210003168C90848EAC1013160306800F0070040
:10222000404570471C4915480A6802F00C03082B0A
:1022300000D0704710B500BF1AA4C2F38343D20385
:10224000E35C08D5096858431AA3C1F340415A5CBE
:10225000B0FBF2F010BD18461049484310BD0648C7
:102260000D4A006813680E49C3F30222FFE7895C38
:10227000C840704700100240B401002000127A00EC
:10228000B001002000004242800442420070004041
:1022900000200240D03100080410024000093D0037
:1022A000FC31000802030405060708090A0B0C0D9F
:1022B0000E0F10100102000038B50D4D0D4B2A789D
:1022C00004464FF47A711868B1FBF2F2B0FBF2F0F9
:1022D000FFF7FEF850B9102C08D2002221464FF02B
:1022E000FF30FFF7CDF8AC60002032BD012032BDD9
:1022F000A8010020B40100200E4881B0016841F01F
:1023000001010160026802F0010200920099426836
:1023100042F080524260406800F080500090009887
:102320000548016821F0E06141F00071016001B0F1
:10233000704700BF18100240040001402DE9F84723
:102340004FF0000E0024644A644BDFF894814FF094
:102350000F0982460CE0D7683840D06006E09560EF
:102360004D68AD02F7D5D0680743D7600EF1010E76
:102370000F6837FA0EF000F0A980012000FA0EF67F
:102380003740B742F2D1486838B301281AD0022842
:102390001DD003282ED0112816D012281AD0514D46
:1023A000A8421CBF504DA84217D0504DA8421CBF98
:1023B0004F4DA84211D04F4DA8421CBF4E4DA842D0
:1023C0000BD018E0CC6816E0CC68241D13E0CC6874
:1023D000083410E0CC680C340DE0886808B9042497
:1023E00009E0012819BF0824CAF814600824CAF8B3
:1023F000106000E00024B7F5807F03D250464FEA1A
:102400008E0C05E0AEF108050AF104004FEA850CD8
:10241000056809FA0CF6B54304FA0CF63543056075
:102420004868C000A2D5D8F8000040F00100C8F804
:102430000000D8F8005005F0010500954FEA8E0520
:1024400000984FEA9E0053F8206005F00C0C09FA42
:102450000CF526EA0505294EB24508BF002618D01E
:10246000274EB24508BF012613D0264EB24508BFFD
:1024700002260ED0244EB24508BF032609D0234EB3
:10248000B24508BF042604D0214EB2450CBF052634
:10249000062606FA0CF6354343F82050F8434D68FB
:1024A000ED0315684CBF3D43054015604D68AD0315
:1024B00055684CBF3D43054055604D689668ED0238
:1024C0004CBF47EA060500EA060548E7BDE8F18784
:1024D00002B909040161704700040140080001408D
:1024E000181002400000111000001210000021100E
:1024F00000002210000031100000321000080140DE
:10250000000C01400010014000140140001801407F
:10251000001C0140F8B5040022D004F13C056978A4
:1025200021B9002028702046FFF7C2F824216970E5
:1025300000F096F82068016841F4004101602068CD
:10254000026822F400420260FFF789FE01466068DB
:10255000DFF8F420904205D2DFF8F030994205D23E
:102560000120F2BDDFF8E8008142F9D32068DFF8EE
:10257000E4304668B1FBF3F3B60943EA86164660D9
:102580002668376A6068904206D34FF496704343DA
:102590004FF47A70B3FBF0F35B1CBF0943EA871377
:1025A0003362491E2368DE696768974206D27F005E
:1025B00000F043F8042913D2042111E0A06820B9E7
:1025C00007EB470700F039F805E01920474300F012
:1025D00034F841F4804108050CBF012141F4004169
:1025E000DFF8740006400E43DE6122681368E1697B
:1025F000206A23F0C0030B43034313602268DFF813
:102600005C00936821690340E0680B4303439360D7
:102610002168CA68A3696069120A034343EA022277
:10262000CA602068016841F0010101600020686013
:10263000202169702063A870F2BDB1FBF7F1491C3D
:10264000C1F30B0170470000A186010080841E00C9
:1026500000093D0040420F000030FFFF007CFFFFFB
:1026600020680268520852000260704707480168FB
:1026700041F000610160026842F08052026004484B
:10268000016841F480710160704700001C10024035
:102690000070004010B5042400F003F8641EFBD164
:1026A00010BD2DE9F0410024344D2F88E0B2012601
:1026B00000F03CF8E740A64004F10108A8B1F80793
:1026C00027D40027E0B200F031F828B100F028F854
:1026D0007F1CFAB20A2AF5DBFFB20A2F19D128882B
:1026E00006432E805FFA88F018E0F90711D500271D
:1026F000E0B200F01BF828B900F012F87F1CF8B225
:102700000A28F5DBFFB20A2F03D1288820EA060643
:102710002E804446E0B20428C7DB0020BDE8F081EB
:1027200001200021FEF757B80000000001460020FC
:102730000F29134A21D8DFE801F0080D111D1519E2
:102740001D1D1D1D1D1D1D1D1D1D0E480168C1F3F4
:10275000800070470C4A1068400A00E0106800F0E2
:10276000010070471068C0F3401070471068C0F354
:10277000801070471068C0F3400070479C02002032
:102780000808014008100140080C0140044604F10B
:102790005400114A0260704710B5FFF7F7FF092394
:1027A0000C4A00F001F808E042608260437308229E
:1027B00002737047027343730A22827321712046A9
:1027C00000F0F5F994F8510040F0010084F8510050
:1027D00010BD000000100140000801402DE9FE4F2F
:1027E0000C461646DDF838B00F9D00F13601002288
:1027F0001F468A7601229DF84030437102FA06F6A0
:1028000002FA04F346EA030402FA07F848EA040766
:102810008DF8017002FA0BFB9DF8307002FA07F791
:10282000029748EA06069DF830C09DF8017002FA4A
:102830000CFC4CEA070A9DF8347002FA07FC9DF87C
:10284000347002FA07F747EA0A074BEA070E80F8E6
:1028500006E08DF8006002FA05F59DF80060C6718B
:102860009DF8306002FA06F646EA04079DF83460E7
:1028700002FA06F63E4345EA060980F8089045EA62
:102880000A0747724CEA04049DF800604BEA06060A
:102890002E43867248EA03069DF8307002FA07F765
:1028A0003E434BEA06072F438DF805704BEA0404BC
:1028B0009DF80570C7722C439DF8347002FA07F733
:1028C0003E434BEA06062E438DF804609DF80460F3
:1028D00006739DF80170477345EA0E078DF8037083
:1028E0009DF8036086734BEA0A062E438DF802605A
:1028F0009DF80260C6730026067445749DF830602A
:1029000002FA06F646EA08079DF8346002FA06F66F
:102910003E4390F905702E4302FA07F737430F70D4
:102920004BEA06064E709DF834709DF8306002FA4E
:1029300006F602FA07F73E438DF801609DF8016044
:102940002E438E709DF80070DDF808A04AEA070754
:102950004CEA07072F43CF704BEA0606CE749DF86A
:1029600001604BEA06074CEA0806CF722E434E730D
:10297000CC7380F812E04BEA0C04C47480F8149015
:10298000029C23434CEA03034BEA03032B434375A6
:1029900045EA08034CEA03034BEA030383759DF8F9
:1029A0000530C3759DF80240047647769DF80330E4
:1029B000837600239DF80440C4760377457700248E
:1029C0009DF940309A40031906199D791543B57752
:1029D00005199B7C641C13430B2C85F82A30F2DD0F
:1029E000C87E40F00200C876BDE8F78F18B585B004
:1029F0000621049103220723FFE70121039202939A
:102A0000009102240194002304220521FFF7E6FE31
:102A100006B010BD2DE9F041054605F15004884689
:102A20006078032829D1284600F0A4F800271FE089
:102A3000002618F807102078C6F10702D140CB070E
:102A400005D50028284605D100F086F804E00028C6
:102A50002846F9D100F07BF8284600F094F8284683
:102A600000F099F8761CF0B20828E2DB7F1CFFB278
:102A700028798742DCDB284601E0BDE8F081BDE82B
:102A8000F0416EE090F85120032A00D07047F0B575
:102A900099B000230DE0613D1A2D08D2044414F8CA
:102AA0002B4C02E02D2DF6D1447C0DF803405B1C2D
:102AB000DBB20479A34234DACE5C851DAC5D0DF83F
:102AC0000340CD5C2C460B2C02DC851D2C5DECE715
:102AD0004678B5420CD306F10B07A74208DB851DEB
:102AE000A41B01262C5D90F90550AE403443DCE771
:102AF0008678B54207D306F10B07A74203DB00F146
:102B00001205A41BE2E7C678B54206D306F10B070F
:102B1000A74202DB00F11205E2E7202DC2D1047CBE
:102B2000C3E76946FFF776FF19B0F0BD18B5044654
:102B300099B094F85100032807D16421684600F049
:102B40008DFA69462046FFF765FF1AB010BD50F8B0
:102B5000541FCA68007B08E050F8541FCA68007B05
:102B60000CE050F8581FCA68407A012383409A430A
:102B7000CA60704750F8581FCA68407A01238340E2
:102B80001A43CA60704750F85C1FCA6880790123F5
:102B900083409A4306E050F85C1FCA68807901239D
:102BA00083401A43CA6001200021FDF723BE3EB5D1
:102BB00004466846FDF798FE04F160059DF8042080
:102BC0002B78616DFDF7BEFE6846FDF724FF6B783C
:102BD0009DF80420A16D6846FDF7B4FE6846FDF738
:102BE0001AFFAB789DF80420E16D6846FDF7AAFE58
:102BF0006846FDF710FF2046FFF7CDFF37BD000008
:102C000010B5002002E00C5C1454401C9842FAD32A
:102C100010BD084611001A4618BFFEF779BC704770
:102C2000014648B1B0FA80F18840C91CC1F5846101
:102C3000090501EBD021400570470000B0B581EADD
:102C4000030C0CF0004C40F2FF7515EA11541DBF47
:102C500015EA1357AC42AF4239E0E41923EA455371
:102C600043F48013C90241F0004141EA505EC702BB
:102C70001100A7FB020200284FF00000EEFB01202C
:102C80004FF00001E3FB072118BF42F0010240189A
:102C900000214941E3FB0E01A4F580640F0302D239
:102CA00052004041494154F101046CDD470872F182
:102CB000004250F1000051EB0451A1F580115CBFBE
:102CC00041EA0C01B0BD4CEA05510020B0BD05EA57
:102CD0001357AC4214BFAF4241E050EA410E1CBF53
:102CE00052EA430E02E061460020B0BD24423C445B
:102CF0001BD15FEA070EF6D0090302BF0146002090
:102D0000AEF1140EB1FA81F7AEEB070401FA07FE3B
:102D10000C37C7F1200100FA07F7C8404EEA000E51
:102D200023EA455343F48013A2E733F00043B3FA98
:102D300083F704BFB2FA82FE77440B3FE41BB7F17E
:102D4000200E2FBF02FA0EF3BB40C7F1200E22FA6D
:102D50000EFE38BF43EA0E03BA40641C82E750EA15
:102D6000410E14BF52EA430E6FF000014FF40017FA
:102D700017EB430F8ABF194617EB410FB5E74CEA33
:102D800005510020B0BDD4F10104B4F120070FDAE1
:102D9000C4F12007520828BF42F0010210FA07F5DB
:102DA00001FA07F7E1BF2A43E0403843E1400FE072
:102DB000352C98DCC7F1200452EA400220FA07F2D1
:102DC00018BF42F0010231FA07F0A1400A43002186
:102DD00072F1004250F1000051EB0C01B0BD000057
:102DE000F0B540F2FF7581EA030C0CF0004C15EAD7
:102DF00011541DBF15EA1357AC42AF42E5E0BC4188
:102E0000C1F31301C3F31303801A994143F48013F0
:102E100004D2641E4000494180185941C90241EA68
:102E20005051B1FBF3F603FB1611A2FB0675D7EB6D
:102E3000C020A94102D2761E80185941C90241EA38
:102E40005051B1FBF3FE03FB1E11A2FB0E75D7EB35
:102E5000C020A94103D2AEF1010E80185941890268
:102E600041EA9051760546EA8E2EB1FBF3F603FB5C
:102E70001611A2FB0675D7EB8020A94102D2761E5F
:102E800080185941C90241EA50514EEA060EB1FB81
:102E9000F3F603FB1611A2FB0675D7EBC020A94180
:102EA00002D2761E80185941C90241EA5051B1FB45
:102EB000F3F703FB1711A2FB0735D3EBC020A941A1
:102EC00067F100070CBF004247F0010766F3D52702
:102ED0004FEA1E31B80814F5806412DDBD0775F1A4
:102EE000004250EB0E5051EB045111F5801F5CBFB6
:102EF00041EA0C01F0BD4CF07F6141F0E04100205F
:102F0000F0BDBD076D0840EA0E5041F48011D4F1C8
:102F10000104B4F120060ADAC4F120060200E04000
:102F200001FA06F3E1401843B24015430EE0342C99
:102F300013DCC6F1200445EA40056D0820FA06F2CC
:102F4000154321FA06F0A1400D43002175F100421E
:102F500050F1000051EB0C01F0BD00205FEA0C01C4
:102F6000F0BDCFB992185B41B3FA83F704BFB2FA50
:102F700082F6BF190B3FB7F120062FBF02FA06F306
:102F8000BB40C7F1200622FA06F638BF3343BA40E9
:102F90001CB1E419641E33E77F4231F00041B1FAFD
:102FA00081F404BFB0FA80F6A4190B3CB4F12006FA
:102FB0002FBF00FA06F1A140C4F1200620FA06F660
:102FC00038BF3143A0403C1B1AE7AC421ABF05EAA8
:102FD0001357AF4212E050EA41061CBF52EA4306C3
:102FE000BFE750EA4107304661461CBF41EA055140
:102FF000F0BD52EA430C08BFC143F0BD00204FF4BE
:10300000001616EB410F98BF16EB430F08BF16EBE7
:10301000410F24BFC14305E016EB430F0CBF6146CF
:103020004CEA0551F0BD0000400D491840EA8120EE
:103030000CD2490DA1F58061491C40F0004005DB30
:10304000D1F11F0154BFC840C0177047002070471E
:1030500001484068704700BFA8010020002200F02E
:1030600001B8000000B500BF130096469446103921
:1030700028BFA0E80C50FAD85FEA417C28BF0CC0FA
:1030800048BF40F8042BC90728BF20F8022B48BFCF
:1030900000F8012B00BD30B5016884684218416812
:1030A00002EB5103C90703D54C4401E0491C05D18B
:1030B0009A420AD012F9011B12F8015B002904F8A8
:1030C000015BF3D4491EF7D5F2E70C3030BD0000A8
:1030D00010B5074979441831064C7C44163404E095
:1030E0000A68081D114488470146A142F8D110BD65
:1030F000080000002800000013D8FFFFE8000000CF
:10310000B8010020000000008FFFFFFFE801000071
:10311000780000000000002035000000FEE7FEE718
:10312000FEE7FEE7FEE770477047704700F006B81D
:103130000148FDF7BBBD00000C02002002494A68AF
:10314000087882184A607047A801002010B504462C
:10315000044979440E31044878440C3000F006F8F4
:10316000204610BD900100008801000038B50446DB
:103170000D46AC4205D0206820188047241DAC4283
:10318000F9D131BD00F00DF8002801D0FFF7A0FF04
:10319000AFF300800020AFF30080FEF785F800F069
:1031A00002F80120704700F001B8000007463846D9
:1031B00000F002F8FBE7000080B5AFF30080024AA0
:1031C00011001820ABBEFBE726000200704700008C
:1031D00000000000000000000102030406070809C7
:1031E0000148804701480047CD310008F13100080F
:1031F000AFF30080AFF30080FFF7C4FF00000000D2
:1032000001020304FFF7FEBFFFF7FEBFFFF7FEBF9B
:10321000FFF7FEBFFFF7FEBFFFF7FEBFFFF7FEBFE2
:10322000FFF7FEBFFFF7FEBFFFF7FEBFFFF7FEBFD2
:10323000FFF7FEBFFFF7FEBFFFF7FEBFFFF7FEBFC2
:10324000FFF7FEBFFFF7FEBFFFF7FEBFFFF7FEBFB2
:10325000FFF7FEBFFFF7FEBFFFF7FEBFFFF7FEBFA2
:10326000FFF7FEBFFFF7FEBFFFF7FEBFFFF7FEBF92
:10327000FFF7FEBFFFF7FEBFFFF7FEBFFFF7FEBF82
:10328000FFF7FEBFFFF7FEBFFFF7FEBFFFF7FEBF72
:10329000FFF7FEBFFFF7FEBFFFF7FEBFFFF7FEBF62
:1032A000FFF7FEBFFFF7FEBFFFF7FEBFFFF7FEBF52
:1032B000FFF7FEBFFFF7FEBFFFF7FEBFFFF7FEBF42
:1032C000FFF7FEBFFFF7FEBFFFF7FEBFFFF7FEBF32
:1032D000FFF7FEBFFFF7FEBFFFF7FEBFFFF7FEBF22
:1032E000FFF7FEBFFFF7FEBFFFF7FEBFFFF7FEBF12
:1032F0002DE4FFFFF80001E803F9000214C8DC9B8D
:10330000000601020304050607E3000214C8DC817D
:1033100000AD0004D00008000DF90005E001000038
:10332000401FDC000001F9000010FC000224F40042
:04000005080031F1CD
:00000001FF
